:020000040800F2
:100000004029002481030008119C00081193000876
:10001000799B0008310E0008C1B5000800000000FF
:10002000000000000000000000000000A1A2000885
:10003000B912000800000000219C0008C9A20008B5
:100040009B0300089B0300089B0300089B03000818
:100050009B0300089B0300089B0300089B03000808
:100060009B0300089B0300089B030008390E00084F
:10007000490E0008590E0008690E00089B0300088D
:100080009B0300089B0300089B0300081113000852
:100090003113000821130008411300089B030008D6
:1000A0009B030008A1A400089B0300089B03000811
:1000B0009B0300089B0300089B0300089B030008A8
:1000C0009B0300089B0300089B0300089B03000898
:1000D000A1A100089B0300089B0300089B030008E4
:1000E000E91200089B030008000000009B030008C1
:1000F0009B0300089B0300089B0300089B03000868
:100100009B0300089B0300089B0300089B03000857
:100110009B03000831A600089B0300089B0300080E
:100120009B0300089B0300089B0300089B03000837
:100130009B0300089B0300089B0300089B03000827
:1001400000000000000000000000000000000000AF
:100150009B0300089B0300089B0300089B03000807
:100160009B0300089B0300089B0300089B030008F7
:100170009B0300089B0300089B030008000000008D
:100180009B0300089B0300089B0300089B030008D7
:100190009B0300089B0300089B0300089B030008C7
:1001A0009B0300089B0300089B030008000000005D
:1001B0009B0300089B0300089B0300089B030008A7
:1001C0009B0300089B0300080000000000000000E3
:1001D00000000000000000009B0300080000000079
:1001E000000000000000000000000000000000000F
:1001F00000000000000000009B0300089B030008B3
:100200009B0300089B030008000000009B030008FC
:100210009B0300089B0300089B0300089B03000846
:100220009B030008000000009B0300080000000082
:100230009B0300089B030008000000009B030008CC
:100240009B0300089B0300089B0300089B03000816
:100250009B0300089B0300089B0300089B03000806
:100260009B0300089B0300089B0300089B030008F6
:100270009B0300089B0300089B030008000000008C
:100280009B0300089B0300089B0300089B030008D6
:10029000000000009B0300089B0300080000000012
:1002A000000000009B0300089B0300089B0300085C
:1002B0009B0300089B0300089B03000851130008E0
:1002C000611300089B0300089B03000800F002F87C
:1002D00000F046F80AA090E8000C82448344AAF19A
:1002E0000107DA4501D100F03BF8AFF2090EBAE898
:1002F0000F0013F0010F18BFFB1A43F0010318475A
:10030000F840010028410100103A24BF78C878C1A4
:10031000FAD8520724BF30C830C144BF04680C600B
:10032000704700000023002400250026103A28BF53
:1003300078C1FBD8520728BF30C148BF0B60704757
:10034000752900F0DF80632900F0338200207047B8
:100350001FB513F08EFE00F0ABF91FBD10B510BD38
:1003600000F06EFA1146FFF7F3FF10F015FC00F0F5
:100370008CFA03B4FFF7F2FF03BC0FF079FE000024
:100380000948804709480047FEE7FEE7FEE7FEE729
:10039000FEE7FEE7FEE7FEE7FEE7FEE70448054965
:1003A000054A064B70470000B9A30008CD020008BB
:1003B0004023002440290024402500244025002417
:1003C000704753EA020C00F069802DE9F04B4FF0C2
:1003D0000006002B1FBFB3FA83F503FA05F424FAD5
:1003E00005F65E4012BF1643B2FA82F502FA05F432
:1003F000C5F120051EBF22FA05FC44EA0C04203595
:1004000056EA044C4FEA144418BF641C4FF000082D
:100410004FF00009904271EB030C39D3002919BF4A
:10042000B1FA81F701FA07F6B0FA80F700FA07F699
:10043000C7F120071EBF20FA07FC46EA0C0620374A
:10044000B6FBF4FCA7EB0507103F07F01F0BCBF141
:1004500020062CFA06F60CFA0BFB44BFB346002626
:10046000202FA4BF5E464FF0000B5BEA060C08BFCE
:100470004FF0010B19EB0B0948EB0608ABFB027CB4
:1004800006FB02CC0BFB03CCC01B71EB0C01C1E7DC
:100490000B46024641464846BDE8F08B13B508437B
:1004A00018BF4FF0FF300146AFF30080BDE81C409D
:1004B000704770B50C460546012A05D0287880069D
:1004C00000D5EA69002302E0012305E05B1C9342AA
:1004D00002D2E05C0028F9D1A869E618C01AA86128
:1004E000286A184428622846AFF3008004E0D5E962
:1004F000012114F8010B9047B442F8D32846AFF31A
:10050000008070BD2DE9F041064600241068752971
:10051000314616A510D0AFF30080002802DA404221
:1005200013A507E031688A0701D512A502E0490743
:1005300004D511A5012401E0AFF3008000210A22B7
:1005400006F1240709E0B0FBF2FCB0FBF2F302FB7A
:100550001C00303078541846491C0028F3D123463B
:100560002A463046BDE8F04100F0C0B80000000067
:100570002D0000002B00000020000000032A40F2A4
:10058000308010F0030C00F0158011F8013BBCF135
:10059000020F624498BF11F801CB00F8013B38BF4D
:1005A00011F8013BA2F1040298BF00F801CB38BF5B
:1005B00000F8013B11F0030300F00781083AC0F096
:1005C000088051F8043B083A51F804CBA0E8081021
:1005D000F5E7121D5CBF51F8043B40F8043BAFF354
:1005E0000080D20724BF11F8013B11F801CB48BFAE
:1005F00011F8012B24BF00F8013B00F801CB48BFE4
:1006000000F8012B704702F0FF0343EA032242EA9D
:10061000024200F024B84FF000020429C0F012801A
:1006200010F0030C00F01B80CCF1040CBCF1020FA5
:1006300018BF00F8012BA8BF20F8022BA1EB0C017A
:1006400000F00DB85FEAC17C24BF00F8012B00F870
:10065000012B48BF00F8012B70474FF0000200B596
:10066000134694469646203922BFA0E80C50A0E8D5
:100670000C50B1F12001BFF4F7AF090728BFA0E883
:100680000C5048BF0CC05DF804EB890028BF40F84F
:10069000042B08BF704748BF20F8022B11F0804F91
:1006A00018BF00F8012B7047704770477047000073
:1006B00070B5064C7C44064D7D4404E0204601683C
:1006C00008448047241DAC42F8D170BD703D010044
:1006D000703D0100704710B500F0AAF8006810BD29
:1006E00010B5044600F0A4F8046010BD2DE9F047F1
:1006F0000D4699469246044600F124080168880692
:1007000004D5E06921F01001216000E00120A84239
:1007100001DD471B00E00027A1697A1902EB0900FF
:10072000081AA0612078C00602D42046AFF30080EA
:10073000002608E0D4E901211AF806009047206A53
:10074000401C761C20624E45F4DB2078C0060AD59A
:100750002046AFF3008006E0D4E901213020904725
:10076000206A401C2062381EA7F10107F4DC07E074
:10077000D4E9012118F805009047206A401C206246
:10078000281EA5F10105F3DC2046AFF30080207898
:10079000000602D50220BDE8F0870120FBE710B576
:1007A000436913B1AFF3008001E0FFF782FE01203F
:1007B00010BD127800F124010A7000224A70012253
:1007C000EDE711684FF0FF32E9E710B5203AC0F0CD
:1007D0000B80B1E81850A0E81850B1E81850A0E814
:1007E0001850203ABFF4F5AF5FEA027C24BFB1E8AD
:1007F0001850A0E8185044BF18C918C0BDE81040F0
:100800005FEA827C24BF51F8043B40F8043B08BFF8
:100810007047D20728BF31F8023B48BF11F8012BBF
:1008200028BF20F8023B48BF00F8012B70470000AA
:100830000048704720000024004870472000002432
:100840007546FFF7F9FFAE4605006946534620F0AE
:100850000700854618B020B5FFF7A0FDBDE8204091
:100860004FF000064FF000074FF000084FF0000B6C
:10087000AC46ACE8C009ACE8C009ACE8C009ACE8DB
:10088000C00921F007018D46704710B50446AFF34B
:1008900000802046BDE81040FFF76BBD000000005F
:1008A00010B50446006842F2001140F48070C4F2B2
:1008B0000201884218D142F20830C4F202000068F6
:1008C00010F4403F18D005F0DBFF6168B1F5803FC0
:1008D00005D0B1F5403F2BD0B1F5003F29D1090C2F
:1008E000B0FBF1F025E000BF46F20830C5F602008B
:1008F000006810F4403FE6D14FF40020002104F0DE
:1009000007FF6168A1F580224FEAB2420A2A10D897
:10091000DFE802F00606060606063C3E40424400BA
:100920006FF0010202EA5141B0FBF1F001E000BFBB
:1009300080084BF62141C0F2BE01884206D82068EB
:10094000816821F44071816010BD00BF47F641010C
:10095000C0F27D11884207D820680122816862F3C5
:100960000921816010BD00BF21684FF28102C0F2F1
:10097000FA229042886805D8022262F30920886032
:1009800010BD00BF40F44070886010BD0009D0E782
:100990004009CEE78009CCE7C009CAE7000AC8E7EA
:1009A0000146806B026E12F0500F026E06D0D20626
:1009B00010D4806DC26C0846104700BF42F400712D
:1009C000016601680A681207CA6805D4910709D050
:1009D00001F08ABB01F090BB12F4406FF8D1C968F6
:1009E0008904F5D4016E21F480710166016EC90499
:1009F000EED4016E41F00101016601F075BB00000B
:100A0000806B016E41F040010166416E41F00401CE
:100A1000416601F071BB0000806B01F069BB000012
:100A2000B0B5016804468A688868C0074FF00000C6
:100A300031D012F0020218BFB0BD886800F00D007E
:100A400001281FD14FF6C0728868C7F6FF721040A8
:100A5000023088600320086004F04AFB216889683E
:100A6000C90701D10020B0BD054602E08068C0077B
:100A7000F8D004F03DFB401B03282068F6D38168C2
:100A8000C907F3D0206E40F010002066606E40F081
:100A9000010060660120B0BDF0B581B00446006879
:100AA0008168C9074CD14FF6C0778168C7F6FF77D8
:100AB00007F17F0211420BD0206E40F0100020663B
:100AC000606E40F001006066012001B0F0BD00BF23
:100AD0008168394041F00101816004F009FB42F274
:100AE000000346F20836C4F20203216803F580725F
:100AF00003F54275C5F60206914208BF2E4699429B
:100B000008BF2E4699420546306816D0914214D14E
:100B100010F01F0014D110E08868C00704D1886865
:100B2000384040F00100886004F0E2FA401B216880
:100B3000032802D30868C007BED00868C007EBD0FE
:100B4000002001B0F0BD000040F600000121C5F614
:100B50000200012204F0C4BA40F600000121C5F6EB
:100B60000200002204F0BCBA704700000000000040
:100B700040F600000821C5F60200012204F0B0BAD8
:100B800040F600000821C5F60200002204F0A8BAD1
:100B9000704700000000000010B5002808BF10BD1D
:100BA0004EF2180145F2003CCEF20001C0F2070CF3
:100BB00003E000BF013802041AD051F804EC0B68BE
:100BC000002208E01A44A342A2EB0402234698BF85
:100BD00072446245EED20C68A342F3D10C68A34282
:100BE00004BF0C68A342EDD10C68A342F3D0E9E73F
:100BF00010BD00000000000080B54EF21801C0EBEF
:100C00000010CEF200014FEA401E002351F804CC40
:100C10000A6808E013448242A3EB0003024698BF2F
:100C2000634473450CD208688242F3D1086882425B
:100C300004BF08688242EDD108688242F3D0E9E738
:100C400080BD00000000000010B5FFF78DFFFFF72A
:100C50009FFF0FF011FA04460FF036FB204310BD42
:100C60002DE9F04F83B002920E460190FFF774FF1A
:100C7000922000F0C5F8922000F0C2F8552000F054
:100C8000BFF88046552000F0BBF88346552000F0A1
:100C9000B7F88246552000F0B3F80446552000F01E
:100CA000AFF80746552000F0ABF80546FFF74CFFBC
:100CB00048EA0B2040F2100900B2C2F2004900EEEF
:100CC000100A4AEA042000B299ED001AB8EEC00AF0
:100CD00021EE000A01EE100A47EA052086ED000A1F
:100CE00000B299ED002A00EE100AB8EEC11AB8EE73
:100CF000C00A22EE011A86ED011A22EE000A86EDE4
:100D0000020AFFF73DFF802000F07AF8552000F03E
:100D100077F80646552000F073F8552000F070F87B
:100D20008246552000F06CF80546552000F068F822
:100D30008346552000F064F80446552000F060F822
:100D40000746552000F05CF88046FFF711FF0F2E94
:100D500025D14AEA052099ED011A00B2019900EE69
:100D6000100A4BEA042000B2B8EEC00A21EE000AD5
:100D700001EE100A47EA082081ED000A00B299ED61
:100D8000012A00EE100AB8EEC11AB8EEC00A22EE2F
:100D9000011A81ED011A22EE000A81ED020AFFF725
:100DA000DBFEA22000F02CF8A22000F029F855204C
:100DB00000F026F80446552000F022F80546FFF71B
:100DC000C3FEE0004FF6000340EA55110022CFF6C3
:100DD000FF73B2EB902F18BF1943B4EE001AB3EEB5
:100DE000072A00EE101A0298B8EEC00AA0EE012AF7
:100DF00080ED002A03B0BDE8F08F00000000000085
:100E000080B582B08DF8070040F63C70C2F2004019
:100E10000DF107010DF1060201234FF47A7CCDF8A4
:100E200000C006F08DFB9DF8060002B080BD0000FA
:100E3000FEE700000000000040F67C30C2F20040F7
:100E400002F00EB80000000040F66C40C2F2004014
:100E500002F006B80000000040F6E440C2F2004094
:100E600001F0FEBF0000000040F6F430C2F2004086
:100E700001F0F6BF0000000040F20F42D0F800C0C1
:100E8000C4F20202944511DC6F22C4F202029445BE
:100E900022DC3F22C4F20202944539DC1022C4F263
:100EA000020294455AD0282254E000BF40F26F421B
:100EB000C4F2020294451BDC40F23F42C4F202023B
:100EC00094452DDC40F21042C4F20202944545D014
:100ED00040F228423EE000BF9F22C4F20202944545
:100EE00028DC7022C4F20202944537D0882231E017
:100EF00040F29F42C4F20202944523DC40F2704269
:100F0000C4F20202944529D040F2884222E000BF98
:100F10004022C4F20202944520D058221AE000BFB9
:100F200040F24042C4F20202944517D040F25842C7
:100F300010E000BFA022C4F2020294450ED0B822F5
:100F400008E000BF40F2B842C4F20202944505D066
:100F500040F2A042C4F20202944517D10CF0F8020C
:100F60004AF6AB23103ACAF6AA23A2FB03310AA31E
:100F70005F2AC1F302115B5C40F2FF312CEA0101F0
:100F8000C36588BF04318165084670472CF0FF01B6
:100F900081650846704700BF00061016000610164F
:100FA00070B540F26F44D0F800C0C4F20204D0F82B
:100FB00058E0A4451ADC9F25C4F20205AC4533DC99
:100FC0005725C4F20205AC455ADC1025C4F20205CF
:100FD000AC4500F098802825C4F20205AC4500F02D
:100FE00092804025C4F202058AE000BF45F22F45F9
:100FF000C5F60205AC452DDC40F2B745C4F202054A
:10100000AC454BDC40F27045C4F20205AC457AD0E9
:1010100040F28845C4F20205AC4574D040F2A045C8
:10102000C4F202056CE000BF40F22745C4F202059D
:10103000AC4543DCA025C4F20205AC4563D0B8251D
:10104000C4F20205AC455ED040F21045C4F2020580
:1010500056E000BF45F26B45C5F60205AC453FDCE6
:1010600045F23045C5F60205AC454CD045F2444545
:10107000C5F60205AC4546D045F258453EE000BFF6
:101080005825C4F20205AC453DD07025C4F20205D6
:10109000AC4538D08825C4F2020531E040F2B845AD
:1010A000C4F20205AC452ED045F20845C5F602054E
:1010B000AC4528D045F21C4520E000BF40F2284551
:1010C000C4F20205AC451ED040F24045C4F2020510
:1010D000AC4518D040F25845C4F2020510E000BFFC
:1010E00045F26C45C5F60205AC450CD045F2944579
:1010F000C5F60205AC4506D045F28045C5F60205A9
:10110000AC4540F0D580456EC66E002E866E6E6092
:101110001CBFD0E91C566E60A44515DC9F24C4F2A8
:101120000204A4452CDC5724C4F20204A44551DC7B
:101130001024C4F20204A4457AD02824C4F2020484
:10114000A44575D040246FE045F22F44C5F6020453
:10115000A44529DC40F2B744C4F20204A44545DCAE
:1011600040F27044C4F20204A44561D040F28844C5
:10117000C4F20204A4455BD040F2A04454E000BF96
:1011800040F22744C4F20204A4453FDCA024C4F288
:101190000204A4454CD0B824C4F20204A44547D0AC
:1011A00040F2104440E000BF45F26B44C5F6020433
:1011B000A44555DC45F23044C5F60204A44561D08F
:1011C00045F24444C5F60204A4455BD045F25844B8
:1011D00054E000BF5824C4F20204A44528D070246F
:1011E000C4F20204A44523D088241DE040F2B84490
:1011F000C4F20204A4451BD045F20844C5F602041B
:10120000A4453FD045F21C4438E000BF40F22844DA
:10121000C4F20204A4450BD040F24044C4F20204DC
:10122000A44505D040F25844C4F20204A4453FD17D
:101230008468C06D00F01F003F2505FA00F0CEF86D
:101240000800DCF80000402C20F48020CCF80000DE
:10125000CCF8043023D0CCF80810CCF80C2070BDAA
:1012600045F26C44C5F60204A4450BD045F2804417
:10127000C5F60204A44505D045F29444C5F602041F
:10128000A44515D1C46D806804F01F0401254028D1
:1012900005FA04F4CEF80440CCF8043004D1CCF8BC
:1012A0000820CCF80C1070BDCCF80810CCF80C203D
:1012B00070BD00000000000070470000000000004A
:1012C00082B011F0B1FFADF8060041F23C10C2F25D
:1012D000004007F019FF0DF1060400BF642120460D
:1012E00010F056FEFAE7000080B54FF4806003F07E
:1012F00013FE4FF48050BDE8804003F00DBE0000A7
:10130000EFF3108072B600BFFEE70000000000009F
:1013100040F65C50C2F2004003F01AB90000000031
:1013200040F65C50C2F2004003F012B90000000029
:1013300040F6FC50C2F2004003F00AB90000000081
:1013400040F6FC50C2F2004003F002B90000000079
:1013500040F69C60C2F2004003F0FAB800000000C2
:1013600040F69C60C2F2004003F0F2B800000000BA
:10137000103090EC040A704740F2DF424FF07C518D
:10138000C3F6F7328260C0E90012012280F82C20F7
:1013900000224AF6AB230521C1604FF07E51016166
:1013A00000214165C0E90511C0E90711C0E9091133
:1013B000A0F85810C4F22012C165C4F24A0380F8A4
:1013C000601080F85010C0E90C23C0E90E11C0E98C
:1013D0001011C0E912117047B0B52DED108B84B01B
:1013E000044690F82C00B0EE648AB0EE44DAB0EE19
:1013F00063CAB0EE43EAB0EE419AB0EE60AAB0EE36
:1014000040BAC4ED081A84ED092AC4ED0A2AB8B11D
:1014100094ED0C1A94ED0D0AA0EE481A94ED000A12
:1014200084ED0C1AB4EE401AF1EE10FA0ADA00203C
:1014300084ED0C0A84F82C0084F8580003E000BF07
:10144000002000E00120FEEE00CA94ED040A94EDB5
:10145000061A94ED053A20EE41FA41F21245F0EEFB
:101460006C9A63EE008AF5EE401AC5F61F75F1EE30
:1014700010FAE0EE009A94ED070AA3EE00FA4FF09E
:101480000101E1EE008A84F85010E0EE009A09D1E3
:10149000B5EE402AF1EE10FA04BFF5EE402AF1EE67
:1014A00010FA7DD0E268616D914228D904F11002F2
:1014B00000210023A162D0680390906802905068D8
:1014C000019010680090012084F82C00C4E90811F4
:1014D000C4F22013236384F85910009BE16584F85B
:1014E0006010C4E91111E16484F850101360019B8D
:1014F0005360029B9360039BD36084F8580022EEF4
:10150000020A9FEDDC1A01EEA10A02EEA20A10EE19
:10151000102A20EE010A9FEDD81AA5EB620203EE15
:10152000102A20EE030AA0EE031A21EE030A22EE8F
:10153000801A21EE803A22EE000A61EE68EA63EE3C
:1015400069FA60EE4FDAE0EE29EAE1EE0FFAE3EE37
:1015500028DAC4ED0EEAC4ED0FFAC4ED10DAA8B92A
:101560002FEEAF0A94ED011A0EEEAE0A0DEEAD0AA3
:10157000B4EE410AF1EE10FA08DDDFEDBDDA4A1CE7
:10158000F0EE6DFAF0EE6DEA08E000BFB1F10A028C
:101590004FF0000384F8503038BF0A46626505E01A
:1015A000DFEDB3DAF0EE6DFAF0EE6DEAB5EE40EA9B
:1015B0000121F1EE10FA84F859100AD1B5EE40CAB3
:1015C000F1EE10FA04BFB5EE40DAF1EE10FA00F0D9
:1015D000D780E268E16D91424FF0000284F860200C
:1015E0005ED9B0EE4F0AF0EE680AB0EE691AF0EE7E
:1015F0004E1AB0EE4C2AF0EE4D2A00F0A5F9F6EEA8
:1016000000BA94ED051A94ED062A94ED073A21EEFE
:10161000021AF0EE40AAF0EE6B0AE2EE420A94EDF6
:10162000042AA2EE031AE3EE430AB0EE410A12F0D6
:10163000DDF89FED921A0AEE810A60EE2BAAB0EE59
:101640006A0A12F029FAF0EE40BAB0EE6A0A12F015
:1016500023FB94ED045A94ED074A2BEE851A94ED82
:10166000056A94ED067A2BEE862A2BEE873A94F8DB
:101670002C00A0EE041A01212BEE844A84F860109D
:10168000A0EE072A0021A0EE463A84ED041AA0EE4F
:10169000454A84ED052A84ED063A84ED074A07E0C1
:1016A00094ED041A94ED052A94ED063A94ED074A58
:1016B0002FEE4D0ADFED6F0A29EECC5ADFED6E1AE0
:1016C00028EECE6AA9EE8E0AA8EE8D5AAFEE0C6A0D
:1016D000E1EE01CA20EE007AE3EE03CA05EE057AD8
:1016E00006EE067A17EE102A27EE207AA5EB6202A4
:1016F00000EE902A27EE207AE7EE201A21EEA07A5B
:1017000061EE040A61EE421A66EE072AE2EE030A6F
:10171000E3EE041A65EE073A20EE077A22EEEC6A51
:1017200023EEE15A27EE600AA7EE216AA2EEA05A44
:10173000A3EEAC0A84ED116A84ED125A84ED130A0B
:10174000A0B925EE057AD4ED020A06EE067A00EE7F
:10175000007AB4EE607AF1EE10FA07DD9FED440AEC
:10176000481CB0EE405AB0EE406A07E0B1F10A0002
:101770004FF0000284F8592038BF0846E0650DE0BC
:101780009FED3B0A94ED041A94ED052A94ED063A78
:1017900094ED074AB0EE405AB0EE406A3DEE800A42
:1017A00094ED0C7A3FEE855A3EEE866A20EE070AEB
:1017B00025EE075A26EE076A9FED317A09EE070AF1
:1017C0000AEE075A0BEE076A20EE080A25EE085AC1
:1017D00026EE086A23EE007A65EE030A62EE401AEE
:1017E000A1EE067AE2EE060A62EE052AA4EE457A3A
:1017F000E1EE051A9FED1F5AE4EE000AE1EE002A21
:10180000E4EE061A32EE070AE3EE462A31EE601ADB
:1018100020EE002A33EE213AA1EE012A34EE224ACC
:10182000A3EE032AA4EE042A12EE100A22EE052AE1
:101830009FED115AA5EB600006EE100A22EE062A73
:10184000A2EE065A25EE062A21EE021A20EE020A20
:1018500084ED041A23EE021A84ED050A24EE020A2E
:1018600084ED061A84ED070A04B0BDEC108BB0BD00
:101870000000000012D336BFFF51D83F35FA8EBCAE
:1018800035FA0E3C0000000010B52DED048BF0EE93
:10189000434A9FED2C3AF0EE433AB0EE434A0446F9
:1018A000FFF79AFD94F82C0010B194F8580018B185
:1018B000BDEC048B10BD00BFB6EE008A94ED050AA6
:1018C00094ED061A94ED072A20EE010AF0EE480A7C
:1018D000E1EE410A94ED041AA1EE020AE2EE420A98
:1018E00011F084FF20EE088AB0EE480A12F0D4F816
:1018F000B0EE409AB0EE480A12F0CEF994ED041A18
:1019000094ED073A29EE012A94ED054A94ED065A22
:1019100029EE046A29EE057AA0EE032A29EE033A9D
:10192000A0EE056AA0EE447A84ED042AA0EE413AC6
:1019300084ED056A84ED067A84ED073ABDEC048BEC
:1019400010BD00BF0000000080B520EE623A41F2F9
:10195000124121EE424AC5F61F7120EEE15A9FED79
:10196000287AA1EE213ADFED271AA0EEA24AF0EE86
:10197000612AA0EE025A23EE036A04EE046A05EE21
:10198000056A16EE100A26EE076AA1EB600002EE69
:10199000100A26EE026AE6EE022A22EE826A24EE9F
:1019A000062A25EE064A23EE063A22EE415A24EE96
:1019B000606AA4EE005AA3EE016A23EE400A25EE07
:1019C000051AA2EE200A06EE061A00EE001A11EE23
:1019D000100A21EE071AA1EB600000EE100A21EEBA
:1019E000001AE1EE001A21EE800A66EE000AB0EE5F
:1019F000420A11F0FBFE9FED041A20EE010A80BDA1
:101A000012D336BFFF51D83FE02E654200000000E0
:101A100070B582B000230193044690F85C00012861
:101A200002D1022002B070BD012084F85C00204683
:101A300015460E46FEF7F4FF216E18B141F0100175
:101A40004CE000BF41F202124FF6C0739143C3F65F
:101A5000FE7302312166216806F4803605F0804568
:101A60008A682E4413404FF2FF72C2F2C3523344CD
:101A700003F100438B608B68B3F1FF3F2ADC019BCD
:101A800001330193019B93421DD88B68B3F1FF3F53
:101A900020DC019B01330193019B934213D88B6897
:101AA000B3F1FF3F16DC019B01330193019B93428D
:101AB00009D88B68B3F1FF3F0CDC019B0133019324
:101AC000019B9342D7D9206E40F0100020F0020114
:101AD000012003E0216E012262F301012166002151
:101AE00084F85C1002B070BDB0B582B090F85C2094
:101AF000012A03D10221084602B0B0BD42F20832E9
:101B000000230193C4F202020093A2F54274036819
:101B1000A34227D14FF6006E4FF60055CFF6FF7E59
:101B2000CFF6FF7552F80E40535923435B0719D483
:101B3000D1F800C01368BCF1000F23F440441DD05D
:101B40004B6823431360535952F80E502B43DB0765
:101B500022D1136840F61F75AB438968194341EAE7
:101B60000C0116E0016E41F0200101660121002206
:101B700080F85C20084602B0B0BD00BF1460515927
:101B800052F80E301943C90708D1116840F61F7387
:101B9000994311600021EAE70021E8E70021E6E728
:101BA0002DE9F04381B00022009290F85C20012AD8
:101BB00004D10221084601B0BDE8F0830368012288
:101BC00080F85C209A68520700F1328246F2083CA5
:101BD0000C68C5F6020C4FF6FF7E002CC0F20F0E0B
:101BE000ACF5427814D4434512D094FAA4F514EA23
:101BF0000E0FB5FA85F54FF0010608BFA50EA40E2D
:101C000005F01F0506FA05F5DE693543DD6100E0E4
:101C1000A40E4D681F2204F01F04C5F3012605F031
:101C20001F05AA4003EB8606AC40376B27EA020289
:101C3000224332639A689C6802F0040204F00804AC
:101C4000121940F000810A6807268D684345C2F3E7
:101C50004064C2F3045203EB840406FA02F6676997
:101C600005FA02F227EA060642EA0602626117D086
:101C700041F20002C5F60042126802F07042B2F171
:101C8000805F73D14A69DC680E2505EA540402FAC4
:101C900004F90C694F46042C00F08280A4E000BFD8
:101CA0004FF604520C69CFF6FF72042C4D695CF8B4
:101CB000026065D14FF65852CFF6FF725CF80220F1
:101CC0001A6E0E68C2F3846216EA0E04C6F38465C7
:101CD00096FAA6F6B6FA86F6374608BF2F46BA42F7
:101CE0000CD11A6E22F000421A660A6802EA0E044B
:101CF000C2F3846592FAA2F2B2FA82F65A6E3746BD
:101D00005A6E002C08BF2F46C2F38462BA420CD12F
:101D10005A6E22F000425A660A6802EA0E04C2F3C2
:101D2000846592FAA2F2B2FA82F69A6E37469A6EF9
:101D3000002C08BF2F46C2F38462BA420CD19A6EBF
:101D400022F000429A660A6802EA0E04C2F3846531
:101D500092FAA2F2B2FA82F6DA6E002CDA6E08BFBC
:101D60002E46C2F38462B24236D06CE0DA684C6927
:101D7000DD68D2064FEA55050AD405F00E0209E0E7
:101D800006224FF0004902EA960205FA02F72BE01C
:101D900005F0080204FA02F90C694F46042C23D11D
:101DA0001A6E0C6802F0F842A406A24200F02281EA
:101DB0005A6E02F0F842A24200F026819A6E02F0BA
:101DC000F842A24203D19A6E22F000429A66DA6E7D
:101DD00002F0F842A24236D1DA6E22F00042DA6610
:101DE0009A68D20732D095E003F160060A6843454D
:101DF00002F0F84256F8245042EA090218BF05F0F2
:101E00000047434542EA070246F824200C6967D0A0
:101E100091F821200D7E56F8247027F00047012A02
:101E200008BF07F100476A1EB2FA82F246F8247032
:101E300052090C69D2021D6904F01F0425F4F04513
:101E4000A2402A431A619A68D20763D143450C68BD
:101E5000CD6817D005F01806D3F8C02004EA0E07A5
:101E60002EFA06F6BA4326403243C3F8C0200022B9
:101E7000C4F2FF7295421DD0B4F1FF3F76DD002120
:101E8000DBE000BF4FF6A85905F01807CFF6FF7941
:101E900004EA0E022EFA07F75CF8096026EA02024D
:101EA00007EA040632434CF809200022C4F2FF720C
:101EB0009542E1D114EA0E0F2ED094FAA4F2B2FAB0
:101EC00082F2013202F01E07092F02F01F072CD800
:101ED000012207EB4706BA4042EA065731E000BF4D
:101EE000ACF52A72CD6952F8246026F0807635432D
:101EF00042F824500C6991F8205052F82460012DCA
:101F000026F0007608BF06F1007642F824609A6851
:101F1000D2079BD0002190E0012202EB946202F0F4
:101F20001E070A2F02F01F07D2D3012207EB470634
:101F3000BA400027CFF6206707EB06573A4342F036
:101F40000077C7F340620725C7F304578E6803EB99
:101F50008202BD40546906FA07F724EA05052F43BB
:101F600057610C68B4F1FF3F3FF789AF42F20001BF
:101F700042F20016C4F20201C4F2020601F58072B8
:101F800001F542779342624608BF3A468B4208BF4A
:101F90003A4643F48077B742156841D18A68D1F850
:101FA00008111143C90743D1002105F0E076CCF2B6
:101FB00052718C4208BF15F4000145D00021CCF2CB
:101FC00021318C4208BF15F0807141D00021CCF640
:101FD00084318C424FF000012FD115F4800208BFEC
:101FE00043452AD1DCF8001021F0E071314341F47F
:101FF00080016CE01A6E22F000421A665A6E02F0FE
:10200000F842A2427FF4DAAE5A6E22F000425A66DB
:102010009A6E02F0F842A2423FF4D5AED7E600BF76
:102020004FF60051CFF6FF715CF80110C907BBD025
:10203000016E41F0200101660121002280F85C2040
:10204000084601B0BDE8F083434505D00021F4E720
:10205000434535D00021F0E7DCF8001042F663522A
:1020600021F0E071C0F23E52314341F40001CCF85E
:10207000001040F20801C2F2004109688909A1FB81
:1020800002129109022202EB41010091009919B359
:10209000009901390091009901B30099013900912B
:1020A0000099E9B10099013900910099D1B10099E5
:1020B00001390091009900294FF00001E8D1BCE7F7
:1020C000DCF8001021F0E071314341F08071CCF870
:1020D00000100021B1E700BF0021AEE70021ACE70E
:1020E0000021AAE70021A8E77047000000000000D7
:1020F0007047000000000000704700000000000072
:10210000F0B581B0044600284FF0000000902DD0BB
:10211000206E30B9204600F07BF90020606684F81C
:102120005C002068816889004FF6C071C5F6FF71B8
:1021300002D582680A4082608268D20031D4826807
:1021400001F18051114042F6635241F080518160AB
:1021500040F20801C0F23E52C2F20041096889090A
:10216000A1FB0212012101EB921105E00125284695
:1021700001B0F0BD009901390091009989B1009931
:1021800001390091009961B10099013900910099DC
:1021900000291FBF009901390091009918BF00293B
:1021A000E8D18168C90009D4216E012541F01001F0
:1021B0002166616E41F00101616600E000258168E1
:1021C000226E02F0100201F004018918216E59D12B
:1021D00021F4817146F2100C023121668168C5F646
:1021E000020CC90724D142F2001240F48071C4F2FB
:1021F0000202914242F20001C4F2020140F0F0807A
:102200008A68D1F808311A43D20711D101F58072DA
:1022100001F5427390421A4618BF0CF53E7288428F
:1022200008BF1A466168136823F47C1319431160D0
:10223000617EE36BACF11006B04243EA413329D032
:10224000A168194394F82030012B41EA034306D1D9
:10225000616A0022CFF6FE7202EB41410B43A16A94
:1022600021B101F47871E26A11430B43B0421FD0EF
:102270004CF20302C168CFF6F07211401943C160FD
:1022800028E000BF41F0100001252066284601B07B
:10229000F0BD00BFA168D4F80CE0082900F0A680CA
:1022A0000C2900F0A5801C2940F0A4801021A4E096
:1022B00044F207025CF8041CCFF6F0721140194397
:1022C0004CF8041CDCF80010626B21F040611143F3
:1022D000CCF800108168826801F0040102F0080265
:1022E000891869D1217EB0424FEA813126D0226B14
:1022F000C36844F20307BB431A431143C16094F817
:102300004410012948D14FF61E020169CFF6004260
:102310000126D4E912371140CFF6FF7606EB0343CE
:102320003943276D1943636D3943226C19430161A9
:10233000016921F07041114301613AE05CF8042C1D
:1023400094F8383044F2030E94F8447022EA0E02F6
:1023500042EA4302012F41EA02014CF8041C1BD15E
:102360004FF61E01DCF80000CFF600410840D4E92A
:1023700012120843216D1043626D0843216C104313
:1023800040F00100CCF80000DCF8000020F07040C4
:102390000843CCF800000FE00169B04221F00101D0
:1023A00001610169226C21F0704141EA0201016181
:1023B00002D02046FEF774FA20682169026B0129D9
:1023C00022F00F0102D1E269013A114301630121B8
:1023D000206E61F301002066284601B0F0BD00BF09
:1023E0005CF8082CD2073FF411AF21E7002104E08C
:1023F000082102E0182918BF002141EA0E01194303
:1024000094F82030012B41EA03433FF421AF26E743
:102410002DE9F043B5B0044602A8283090210025EC
:102420003095CDE93355CDE93155FEF716F942F235
:1024300000012068C4F20201884203D035B0BDE833
:10244000F08300BF4FF400200290022004904FF070
:1024500010080395CDE90580CDE90700C0200B9554
:10246000CDE9090502A803F057FB08B1FEF748FFC4
:1024700044F2E0400025C5F60200C5F6020530AE84
:102480004FF0030950F8081C002741F0200140F8E4
:10249000081C50F8081C01F0200101910199016805
:1024A00041F001010160016801F001010191019910
:1024B000016841F0040101600068314600F0040049
:1024C00001900198202030902846CDF8C490329792
:1024D00002F02EFD05F500603146CDE930893297D6
:1024E00002F026FD40F67C351020C2F20045C4F211
:1024F000020028600920C5E901074FF480602861C7
:102500004FF4006068614FF40050A8614FF4807090
:10251000EF60C5E9070728466F6201F0B9F808B116
:10252000FEF7EEFEA565AC6335B0BDE8F0830000B4
:102530002DE9F04742F2001546F20C0AC4F20205FA
:10254000044605F50277C5F6020A03683846A5F584
:102550008076AB4218BF0AF53F70B34208BF3846D9
:1025600000689B685B0704D4894694F85C100129D5
:1025700002D10220BDE8F08700F01F060120092EDD
:1025800084F85C004CD8B04040F22121084247D08A
:1025900020469046FEF780FA20B1002184F85C10B6
:1025A000BDE8F087216840F60172206EA94220EA5A
:1025B000020000F58070206600D11EB9206E20F464
:1025C00080102066206E40F6A113C0044FF000007A
:1025D00044BF606E20F0060040F61927C0F60003E5
:1025E0006066C0F60007A06D0022C0E90F3740F614
:1025F0000123C0F60003C3641C230B6084F85C2035
:10260000AAF10C024B68914243F010024A600DD0CF
:10261000226BCB6823F003031A43CA6016E000BFA5
:10262000002084F85C000120BDE8F08794F8382091
:10263000DAF8003023F0030343EA4202CAF800202C
:10264000DAF8002042F00102CAF8002040314A4680
:10265000434601F04DFB21684FF6C073C7F6FF7388
:102660008A681A4004328A60BDE8F08700000000E2
:102670002DE9F041044602F03BFD1CB3054694F8F9
:102680003500022822D140F20F462768C4F2020624
:1026900040F26F48B7426FF00E00C4F202081DDC32
:1026A0006F21C4F202018F422ADC3F21C4F20201F1
:1026B0008F4241DC1021C4F202018F4263D02821F5
:1026C0005CE000BF0120BDE8F08100BF80206065B4
:1026D0000120002184F83410BDE8F08147451BDC5F
:1026E00040F23F41C4F202018F422DDC40F2104122
:1026F000C4F202018F4246D040F228413EE000BFC2
:102700009F21C4F202018F4228DC7021C4F2020131
:102710008F4238D0882131E040F29F41C4F202015B
:102720008F4223DC40F27041C4F202018F422AD072
:1027300040F2884122E000BF4021C4F202018F42F2
:1027400021D058211AE000BF40F24041C4F20201FA
:102750008F4218D040F2584110E000BFA021C4F2CF
:1027600002018F420FD0B82108E000BF40F2B8410B
:10277000C4F202018F4206D040F2A041C4F202012D
:102780008F42394607D13946386820F01E0041F89B
:10279000140B6FF080000A68474500EA02000860E9
:1027A0001ADC9F20C4F20200874233DC5720C4F2B7
:1027B000020087425ADC1020C4F20200874200F077
:1027C00097802820C4F20200874200F091804020C8
:1027D000C4F202008AE000BF45F22F40C5F60200B5
:1027E00087422DDC40F2B740C4F2020087424BDC46
:1027F00040F27040C4F20200874279D040F2884033
:10280000C4F20200874273D040F2A040C4F202003A
:102810006CE000BF40F22740C4F20200874243DC74
:10282000A020C4F20200874262D0B820C4F20200A5
:1028300087425DD040F21040C4F2020056E000BF73
:1028400045F26B40C5F6020087423FDC45F230405E
:10285000C5F6020087424BD045F24440C5F602005F
:10286000874245D045F258403EE000BF5820C4F2B0
:10287000020087423CD07020C4F20200874237D069
:102880008820C4F2020031E040F2B840C4F20200F5
:1028900087422DD045F20840C5F60200874227D076
:1028A00045F21C4020E000BF40F22840C4F2020084
:1028B00087421DD040F24040C4F20200874217D048
:1028C00040F25840C4F2020010E000BF45F26C40F4
:1028D000C5F6020087420BD045F29440C5F60200CF
:1028E000874205D045F28040C5F60200874204D1F8
:1028F000206E016821F480710160386820F00100C9
:10290000386000BF3868C00710D002F0F1FB401BF0
:102910000628F7D320206065032084F835000120C5
:10292000002184F83410BDE8F08100BF2068B04277
:1029300010DC6F21C4F2020188421DDC3F21C4F289
:102940000201884234DC1021C4F20201884255D0D1
:1029500028214FE040451BDC40F23F41C4F2020118
:1029600088422DDC40F21041C4F20201884245D079
:1029700040F228413EE000BF9F21C4F2020188429C
:1029800028DC7021C4F20201884237D0882131E06E
:1029900040F29F41C4F20201884223DC40F27041C0
:1029A000C4F20201884229D040F2884122E000BFEF
:1029B0004021C4F20201884220D058211AE000BF11
:1029C00040F24041C4F20201884217D040F258411F
:1029D00010E000BFA021C4F2020188420ED0B8214D
:1029E00008E000BF40F2B841C4F20201884205D0BD
:1029F00040F2A041C4F2020188425BD1D4E9161230
:102A000002F01F023F2303FA02F28A6040455BDCBA
:102A10009F21C4F20201884214DC5721C4F2020152
:102A2000884227DC1021C4F20201884200F0A28013
:102A30002821C4F20201884200F09C804021C4F2A7
:102A4000020195E040F22741C4F2020188421FDCF6
:102A5000A021C4F20201884200F08C80B821C4F2A7
:102A60000201884200F0868040F21041C4F2020167
:102A70007EE000BF5821C4F2020188427AD0702162
:102A8000C4F20201884275D08821C4F202016FE0CD
:102A900040F22841C4F2020188426BD040F240412A
:102AA000C4F20201884265D040F25841C4F20201EA
:102AB0005EE000BFD4E9161202F01F02012303FA00
:102AC00002F24A604045A3DD45F22F41C5F60201FE
:102AD000884217DC40F2B741C4F20201884227DC89
:102AE00040F27041C4F20201884243D040F2884172
:102AF000C4F2020188423DD040F2A041C4F202017A
:102B000036E000BF45F26B41C5F6020188421FDC8A
:102B100045F23041C5F6020188422BD045F24441CE
:102B2000C5F60201884225D045F258411EE000BF9B
:102B300040F2B841C4F2020188421BD045F208417C
:102B4000C5F60201884215D045F21C410EE000BFD7
:102B500045F26C41C5F6020188420BD045F2944122
:102B6000C5F60201884205D045F28041C5F6020152
:102B700088420BD1616EA26EE06E4A6030B101688E
:102B800021F480710160D4E91C014160012084F8C6
:102B900035000020002184F83410BDE8F0810000E9
:102BA00080B5D8B190F83510022919D140F20F4202
:102BB0000168C4F20202914216DC6F23C4F20203E0
:102BC000994227DC3F23C4F2020399423EDC1023E2
:102BD000C4F2020399425FD0282359E0012080BD4E
:102BE00080214165012080BD40F26F43C4F20203A1
:102BF00099421BDC40F23F43C4F2020399422DDCB0
:102C000040F21043C4F20203994245D040F22843F7
:102C10003EE000BF9F23C4F20203994228DC7023E8
:102C2000C4F20203994237D0882331E040F29F4337
:102C3000C4F20203994223DC40F27043C4F202035F
:102C4000994229D040F2884322E000BF4023C4F2D9
:102C50000203994220D058231AE000BF40F24043BB
:102C6000C4F20203994217D040F2584310E000BF6B
:102C7000A023C4F2020399420ED0B82308E000BF9B
:102C800040F2B843C4F20203994205D040F2A04397
:102C9000C4F20203994275D191424FF0040280F8C8
:102CA000352011DC6F20C4F20200814222DC3F207B
:102CB000C4F20200814239DC1020C4F202008142D9
:102CC00059D0282054E000BF40F26F40C4F2020007
:102CD00081421BDC40F23F40C4F2020081422DDC05
:102CE00040F21040C4F20200814244D040F2284039
:102CF0003EE000BF9F20C4F20200814228DC702029
:102D0000C4F20200814236D0882031E040F29F4078
:102D1000C4F20200814223DC40F27040C4F202009F
:102D2000814228D040F2884022E000BF4020C4F217
:102D3000020081421FD058201AE000BF40F24040FC
:102D4000C4F20200814216D040F2584010E000BFA9
:102D5000A020C4F2020081420DD0B82008E000BFDC
:102D600040F2B840C4F20200814204D040F2A040D8
:102D7000C4F202008142086820F0010008600020CF
:102D800080BD00BF0A6822F00E020A6045F2574279
:102D9000C5F6020291420A6822F001020A600FDCC5
:102DA00045F22F42C5F60202914219DC45F2084273
:102DB000C5F60202914229D045F21C4222E000BF32
:102DC00045F27F42C5F60202914213DC45F25842B9
:102DD000C5F60202914219D045F26C4212E000BFE2
:102DE00045F23042C5F6020291420FD045F244420C
:102DF00008E000BF45F29442C5F60202914205D0B8
:102E000045F28042C5F6020291421AD1D0E9181C5F
:102E1000D0E916E30A6822F480720A6003F01F0109
:102E2000012202FA01F1CEF80410816ECCF80410F0
:102E3000C16E31B10A6822F480720A60D0E91C12B6
:102E40004A60012180F83510026D002180F83410AD
:102E50000AB190470021084680BD00000000000034
:102E60002DE9F04782B00021019140F208010446AB
:102E7000C2F2004148F2B512C1F64E32A56D0968A2
:102E800040F26F490068C4F20209A1FB02184845EC
:102E90002E68296816DC9F21C4F2020188422DDCCD
:102EA0005721C4F20201884252DC1021C4F202010F
:102EB00088427CD02821C4F20201884277D0402188
:102EC00070E000BF45F22F42C5F60202904229DCB5
:102ED00040F2B742C4F20202904245DC40F2704137
:102EE000C4F20201884262D040F28841C4F2020179
:102EF00088425CD040F2A04154E000BF40F227413C
:102F0000C4F2020188423FDCA021C4F202018842DF
:102F10004DD0B821C4F20201884248D040F210419D
:102F200040E000BF45F26B42C5F60202904275DCFC
:102F300045F23042C5F60202904200F0828045F22E
:102F40004442C5F6020290427BD045F2584273E0FB
:102F50005821C4F20201884229D07021C4F2020132
:102F6000884224D088211DE040F2B842C4F2020217
:102F700090421CD045F20842C5F60202904260D051
:102F800045F21C4258E000BF40F22841C4F2020161
:102F900088420CD040F24041C4F20201884206D07F
:102FA00040F25841C4F20201884240F05A83E16D78
:102FB000082201F01F0140F20F4A8A40C4F2020ABF
:102FC000324200F0E68050454FF0040312DC6F27D8
:102FD000C4F20207B8426FDC3F27C4F20207B842CE
:102FE00000F3A4801027C4F20207B84200F0C580A5
:102FF0002827BDE048456BDC40F23F47C4F202079A
:10300000B84200F39B8040F21047C4F20207B84276
:1030100000F0B38040F22847AAE000BF45F26C42BE
:10302000C5F6020290420CD045F28042C5F602027B
:10303000904206D045F29442C5F60202904240F01A
:1030400010830268E36D03F01F0304279F400F42C3
:1030500018BF12F0040621D102279F400F4218BF6B
:1030600012F002064CD1D940090740F1FA8212F061
:10307000080100F0F682016821F00E0101600120D4
:1030800000FA03F16960606584F835000020E16CA6
:1030900084F83400002940F0DC82E2E211046F6021
:1030A00026D4910603D4016821F004010160216C4B
:1030B000002940F0CE82D4E29F27C4F20207B84232
:1030C00046DC7027C4F20207B84256D088274FE08A
:1030D00040F29F47C4F20207B84241DC40F2704719
:1030E000C4F20207B84248D040F2884740E000BF2F
:1030F000D00300F1B382A16C002940F0AA82B0E2B3
:1031000011046F6000F1B082910609D4016821F0CA
:103110000A010160012084F83500002084F83400A1
:10312000E16B002940F095829BE200BF4027C4F28A
:103130000207B84221D058271AE000BF40F24047AA
:10314000C4F20207B84218D040F2584710E000BF5E
:10315000A027C4F20207B8420FD0B82708E000BF8A
:1031600040F2A047C4F20207B84206D040F2B84786
:10317000C4F20207B84218BF082307681F4208D0EC
:10318000036823F004030360AA60626D42F0010249
:10319000626501228A4032426FD0504510DC6F23B5
:1031A000C4F2020398421DDC3F23C4F2020398429A
:1031B00034DC1023C4F20203984256D028234FE097
:1031C00048451BDC40F23F43C4F2020398422DDC29
:1031D00040F21043C4F20203984246D040F2284322
:1031E0003EE000BF9F23C4F20203984228DC702314
:1031F000C4F20203984238D0882331E040F29F4362
:10320000C4F20203984223DC40F27043C4F202038A
:1032100098422AD040F2884322E000BF4023C4F203
:103220000203984221D058231AE000BF40F24043E5
:10323000C4F20203984218D040F2584310E000BF95
:10324000A023C4F2020398420FD0B82308E000BFC5
:1032500040F2A043C4F20203984206D040F2B843C1
:10326000C4F20203984240F0058243691B0604D56C
:10327000AA60626D42F00202626504228A40324214
:103280006FD0504510DC6F23C4F2020398421DDC5E
:103290003F23C4F20203984234DC1023C4F2020339
:1032A000984256D028234FE048451BDC40F23F436C
:1032B000C4F2020398422DDC40F21043C4F2020330
:1032C000984246D040F228433EE000BF9F23C4F21C
:1032D0000203984228DC7023C4F20203984238D0DB
:1032E000882331E040F29F43C4F20203984223DC7A
:1032F00040F27043C4F2020398422AD040F288435D
:1033000022E000BF4023C4F20203984221D0582398
:103310001AE000BF40F24043C4F20203984218D0C2
:1033200040F2584310E000BFA023C4F202039842C9
:103330000FD0B82308E000BF40F2A043C4F202035C
:10334000984206D040F2B843C4F20203984240F0DB
:10335000998103689B0704D5AA60626D42F004025C
:103360006265102202FA01F1314200F0818050457D
:103370004FF0080210DC6F23C4F2020398421DDCF8
:103380003F23C4F20203984234DC1023C4F2020348
:10339000984256D028234FE048451BDC40F23F437B
:1033A000C4F2020398422DDC40F21043C4F202033F
:1033B000984246D040F228433EE000BF9F23C4F22B
:1033C0000203984228DC7023C4F20203984238D0EA
:1033D000882331E040F29F43C4F20203984223DC89
:1033E00040F27043C4F2020398422AD040F288436C
:1033F00022E000BF4023C4F20203984221D05823A8
:103400001AE000BF40F24043C4F20203984218D0D1
:1034100040F2584310E000BFA023C4F202039842D8
:103420000FD0B82308E000BF40F2A043C4F202036B
:10343000984206D040F2B843C4F20203984218BF43
:1034400004220368134213D0A9600168490301688C
:1034500008D4C90508D4016821F008010160216C75
:1034600021B905E008034FD4216C09B120468847F3
:10347000E06D00F01F01202000FA01F2324200F05E
:10348000AB8020681023504510DC6F27C4F2020780
:10349000B8421DDC3F27C4F20207B84238DC1027CF
:1034A000C4F20207B8425AD0282753E048451BDC33
:1034B00040F23F47C4F20207B84231DC40F2104705
:1034C000C4F20207B8424AD040F2284742E000BFA7
:1034D0009F27C4F20207B8422CDC7027C4F202070F
:1034E000B8423CD0882735E040F29F47C4F202073B
:1034F000B84227DC40F27047C4F20207B8422ED02F
:1035000040F2884726E000BFA16C0029AED1AFE7AA
:103510004027C4F20207B84221D058271AE000BF62
:1035200040F24047C4F20207B84218D040F2584770
:1035300010E000BFA027C4F20207B8420FD0B8279E
:1035400008E000BF40F2A047C4F20207B84206D02C
:1035500040F2B847C4F20207B84218BF0223076816
:103560001F4239D0AA6094F83520042A02681BD182
:1035700022F016020260426922F080024261226C4F
:103580000AB9A26C1AB1026822F0080202603F2058
:103590008840A860012084F83500216D00200029B2
:1035A00084F8340055D15CE0510301680CD4C9059E
:1035B0000ED4016821F010010160012084F835006B
:1035C000002084F8340003E0080301D4616C00E0BB
:1035D000E16B09B120468847606D002841D0606DDD
:1035E000C00734D0042084F8350020684FEA9821C1
:1035F000026822F001020260019A013201928A42BD
:103600001AD80268D20717D0019A013201928A4271
:1036100012D80268D2070FD0019A013201928A4271
:103620000AD80268D20707D0019A013201928A4271
:1036300002D80268D207DFD10068C0074FF003004C
:1036400008BF012084F83500002084F83400E16CC4
:1036500039B1204602B0BDE8F0470847216C002987
:10366000F7D102B0BDE8F087D0030DD4616C00291A
:10367000EFD1F6E7026804228A4032427FF401AEBD
:103680006FE600BF02686CE6E16B0029E1D1E8E774
:103690002DE9F04381B0044601F02AFD002C00F032
:1036A000AF8040F26F4805462068C4F202084045EA
:1036B00016DC9F21C4F2020188422DDC5721C4F29E
:1036C0000201884254DC1021C4F20201884200F059
:1036D0007E802821C4F20201884278D0402171E026
:1036E00045F22F41C5F60201884229DC40F2B7417C
:1036F000C4F20201884247DC40F27041C4F2020188
:10370000884264D040F28841C4F2020188425ED00F
:1037100040F2A04156E000BF40F22741C4F202014E
:10372000884241DCA021C4F2020188424FD0B82176
:10373000C4F2020188424AD040F2104142E000BF88
:1037400045F26B41C5F60201884200F3BD8045F2A7
:103750003041C5F60201884200F0C98045F244417B
:10376000C5F60201884200F0C28045F25841B9E036
:103770005821C4F20201884229D07021C4F202010A
:10378000884224D088211DE040F2B841C4F20201F1
:1037900088421CD045F20841C5F60201884200F07B
:1037A000A68045F21C419DE040F22841C4F202018E
:1037B00088420CD040F24041C4F20201884206D057
:1037C00040F25841C4F20201884240F025810221B2
:1037D00084F83510002184F83410016821F00101CB
:1037E000016000BF20680168C9070DD001F080FCAE
:1037F000401B0628F6D320206065032084F835009E
:10380000012001B0BDE8F08348F23F0204F1080650
:103810000168CFF610621140D4F818C06CCE114385
:10382000D4F824901943E3692943256A0E43B9F17A
:10383000040F43EA060343EA050343EA0C0303D1FA
:10384000D4E90B652E433343666843F48011A6F137
:103850003F07A6F12905042FA6F1470238BF0B4602
:10386000062DA6F14F0E38BF0B46022A26F00302A2
:1038700038BF0B46BEF1040F38BF0B46742A08BF91
:103880000B46B9F1040F0360416921F0070141EAD9
:10389000090140F0DD80D4E90A53002B41EA05011B
:1038A00000F0D680BCF5005F00F0B880BCF1000FDE
:1038B00040F0C080022D00F0C080012D00F0B480E7
:1038C000002D00F0BA80C3E045F26C41C5F602015C
:1038D00088420CD045F28041C5F60201884206D0EC
:1038E00045F29441C5F60201884240F0958004F10A
:1038F000080E022184F83510002184F83410016884
:10390000A3699EE80450A2F18005E769B5FA85F540
:1039100066696D09402A4FEA853543EA07026FF36D
:10392000101142EA060208BF102541EADC0142EA12
:103930000E02236A294341EAD20141EA131140F8F9
:103940000819C0B2CD2148433C2101EA9020E0652E
:103950002046FDF791FAE16D012201F01F0102FA04
:1039600001F141602068404500F381809F21C4F24D
:103970000201884214DC5721C4F20201884227DC8C
:103980001021C4F20201884200F0C7802821C4F24D
:103990000201884200F0C1804021C4F20201B9E076
:1039A00040F22741C4F20201884221DCA021C4F286
:1039B0000201884200F0B180B821C4F202018842BD
:1039C00000F0AB8040F21041C4F20201A2E000BF5F
:1039D0005821C4F20201884200F09F807021C4F295
:1039E0000201884200F099808821C4F2020191E02E
:1039F00040F22841C4F20201884200F08E8040F279
:103A00004041C4F20201884200F0878040F25841F0
:103A1000C4F202017EE000BF4020EDE6032D17D87E
:103A2000DFE805F00E0B0E02A3F1C072B2FA82F2CB
:103A3000520904E0032D03D30AD1C3F300623AB163
:103A400040206065012084F8350001B0BDE8F083B6
:103A500041612046FDF710FAE16D3F2201F01F01A0
:103A600002FA01F18160206840457FF77FAF45F29F
:103A70002F41C5F60201884216DC40F2B741C4F27C
:103A80000201884226DC40F27041C4F20201884201
:103A900043D040F28841C4F2020188423DD040F256
:103AA000A041C4F2020135E045F26B41C5F60201C6
:103AB00088421FDC45F23041C5F6020188422CD015
:103AC00045F24441C5F60201884226D045F25841EC
:103AD0001EE000BF40F2B841C4F2020188421CD08F
:103AE00045F20841C5F60201884216D045F21C4154
:103AF0000EE000BF45F26C41C5F6020188420CD0D1
:103B000045F29441C5F60201884206D045F2804153
:103B1000C5F60201884240F0E18045F2574C45F677
:103B2000FC01C5F6020CC5F6020160450EDC45F24B
:103B30002F42C5F60202904218DC45F20842C5F653
:103B40000202904228D045F21C4221E045F27F4219
:103B5000C5F60202904213DC45F25842C5F6020255
:103B6000904219D045F26C4212E000BF45F230425B
:103B7000C5F6020290420FD045F2444208E000BF71
:103B800045F29442C5F60202904205D045F28042C9
:103B9000C5F60202904247D100F0FC024CF6CD433C
:103BA000083ACCF6CC43A2FB0323A1F1FC05A1F11A
:103BB0007C061B0905EB830503F01F02A36825663D
:103BC000802B4FF0010303FA02F26666A26605D16C
:103BD00000206060286072601EE000BF6768FBB272
:103BE000013F072F2B60726016D85E1E082E19D277
:103BF000604501F1440237DC45F22F47C5F6020764
:103C0000B84241DC45F20847C5F60207B84259D030
:103C100045F21C474AE000BF00206067C4E91B0072
:103C20005CE000BFE06E54E000F0F8024AF6AB231F
:103C3000103ACAF6AA23A2FB032740F20F43C4F2AC
:103C4000020308253A09984203F1AA06134688BFE1
:103C500005EB171340F60005B042C4F2020505F16A
:103C6000800628BF1346A5E745F27F47C5F6020741
:103C7000B84213DC45F25847C5F60207B84221D0D6
:103C800045F26C4712E000BF45F23047C5F6020727
:103C9000B84217D045F2444708E000BF45F28047DC
:103CA000C5F60207B8420DD045F29447C5F60207A3
:103CB000B84207D040F60000C4F2020000F1FC0157
:103CC00000F5A07201EB83000121E066B14022679C
:103CD000616700210160D4E91C014160002060653A
:103CE000012184F8351001B0BDE8F0830000000028
:103CF000B0B500283CD0054690F83400012801D129
:103D00000220B0BD012085F8340095F83500012867
:103D100028D1022085F835000020686528680468ED
:103D200024F0010404602846FDF73AF940F20F42FE
:103D30002868C4F2020240F26F419042C4F20201CC
:103D400018DC6F23C4F20203984225DC3F23C4F23F
:103D5000020398423CDC1023C4F2020398425ED076
:103D6000282357E04FF400606865002085F8340090
:103D70000120B0BD88421BDC40F23F43C4F2020385
:103D800098422DDC40F21043C4F20203984246D020
:103D900040F228433EE000BF9F23C4F20203984252
:103DA00028DC7023C4F20203984238D0882331E023
:103DB00040F29F43C4F20203984223DC40F2704376
:103DC000C4F2020398422AD040F2884322E000BFA6
:103DD0004023C4F20203984221D058231AE000BFC6
:103DE00040F24043C4F20203984218D040F25843D4
:103DF00010E000BFA023C4F2020398420FD0B82302
:103E000008E000BF40F2B843C4F20203984206D073
:103E100040F2A043C4F20203984240F02F810368AD
:103E20000B2464F3440303602B6C1BB10823046868
:103E300023430360884219DC9F23C4F202039842A3
:103E400032DC5723C4F20203984259DC1023C4F237
:103E50000203984200F096802823C4F2020398429D
:103E600000F090804023C4F2020389E045F22F4322
:103E7000C5F6020398422DDC40F2B743C4F20203B8
:103E800098424BDC40F27043C4F20203984279D06E
:103E900040F28843C4F20203984273D040F2A04338
:103EA000C4F202036CE000BF40F22743C4F20203F5
:103EB000984243DCA023C4F20203984262D0B823A4
:103EC000C4F2020398425DD040F21043C4F20203F0
:103ED00056E000BF45F26B43C5F6020398423FDC53
:103EE00045F23043C5F6020398424BD045F24443B5
:103EF000C5F60203984245D045F258433EE000BF64
:103F00005823C4F2020398423CD07023C4F2020347
:103F1000984237D08823C4F2020331E040F2B8431C
:103F2000C4F2020398422DD045F20843C5F60203BD
:103F3000984227D045F21C4320E000BF40F22843BE
:103F4000C4F2020398421DD040F24043C4F202037F
:103F5000984217D040F25843C4F2020310E000BF69
:103F600045F26C43C5F6020398420BD045F29443E8
:103F7000C5F60203984205D045F28043C5F6020318
:103F8000984274D12B6E1C68E40303D51C6844F47A
:103F900080741C60EB6E1BB11D6845F480751D605C
:103FA000904211DC6F21C4F2020188421EDC3F21E5
:103FB000C4F20201884235DC1021C4F202018842B9
:103FC00055D0282150E000BF88421BDC40F23F4121
:103FD000C4F2020188422DDC40F21041C4F2020119
:103FE000884244D040F228413EE000BF9F21C4F205
:103FF0000201884228DC7021C4F20201884236D0D6
:10400000882131E040F29F41C4F20201884223DC62
:1040100040F27041C4F20201884228D040F2884147
:1040200022E000BF4021C4F2020188421FD0582183
:104030001AE000BF40F24041C4F20201884216D0AB
:1040400040F2584110E000BFA021C4F202018842B2
:104050000DD0B82108E000BF40F2B841C4F202011F
:10406000884204D040F2A041C4F2020188420168B3
:1040700041F0010101600020B0BD00BF03680524CC
:1040800064F3430303602B6C002B3FF4D3AE042393
:10409000CDE600000000000090F89830013B012BB5
:1040A0000ED80068836D0B4212D0836D0B408B429B
:1040B00016D1C36D43F00203C3658B0514D418E019
:1040C00000F19C01012002220B681A430A6070472C
:1040D000C36D43F00103C3658B0505D409E000BF40
:1040E0000323C3658B0504D5D0F8E0301343C0F833
:1040F000E0304B0504D5D0F8E4301A43C0F8E42092
:104100004FF6FF72436DC3F6CF720A401A43426501
:104110008A0F4AF614010020C4F200010B681A430A
:104120000A607047000000002DE9F04390F89830D5
:10413000022B19D10668D6F8C03013F07C5F1DD071
:10414000D6F8C4309B0223D4D6F8C4300C69C3F32C
:10415000044CD1E90035002D8D6823D023432B4337
:1041600043F0804E22E000BFD0F89C1041F00801DF
:10417000C0F89C100120BDE8F08300BFD0F89C106F
:1041800041F02001C0F89C100120BDE8F08300BF81
:10419000D0F89C1041F40071C0F89C100120BDE8DB
:1041A000F08300BF44EA834343EA050E836ED0F8F0
:1041B0008450D1E907970CFB03F48B6949EA076740
:1041C000D1F81480D1F80C901F4305EB840347EA23
:1041D000080745F824E047EA09475F60CF6887B1E0
:1041E00044F27435083303320024C0F6010500BFE1
:1041F000171957F8037C1F51CF680434EF5DBC4298
:10420000F6D3012101FA0CF1C6F8D010C0F89410D1
:104210000020BDE8F08300007047000000000000AF
:1042200090F89830012B0DD1012913D0F1B9006815
:10423000D0F8F01021F07C5141EA0261C0F8F01092
:1042400000207047D0F89C1041F00401C0F89C1089
:10425000012070470068D0F8A01021F0FE4141EA2B
:104260000261C0F8A0100020704700BF0068D0F8BD
:10427000B01021F0FE4141EA0261C0F8B010002008
:10428000704700000000000080B590F89820013AC7
:10429000012A0BD80A68002ACA680FD00B69072ABE
:1042A00043EA427E18D18B691BE000BFD0F89C1016
:1042B00041F00201C0F89C10012080BD072A19D1ED
:1042C0000A69D1F81CC012048B6942EA0C221A4315
:1042D00042F0605218E000BFD1F808C04B6943EAD1
:1042E0008C73006F496800EBC10240F831E0002098
:1042F000536080BD8B68D1F810C09B0743EAC2624F
:104300004B6942EA0C421A434968C06E40F82120CA
:10431000002080BD0000000090F898C0BCF1010FA3
:104320000ED19200006842EA0111DDF800C041EAB6
:10433000430141EA0C01C0F880100020704700BF23
:10434000D0F89C1041F00401C0F89C100120704787
:1043500070470000000000007047000000000000EF
:104360002DE9F04390F89870022F11D1402919D10E
:104370000668D6F8A07017F4FE0F2FD0D6F8A470F8
:104380007F0635D0D6F8A470FF013BD400273CE06F
:10439000D0F89C1041F00801C0F89C100120BDE845
:1043A000F08300BF41290FD10668D6F8B07017F42A
:1043B000FE0F13D0D6F8B4707F0619D0D6F8B470BB
:1043C000FF012BD400272CE0076D8F4206D900F1A6
:1043D0007C04456D4FF0000C0E462BE0D0F89C108D
:1043E00041F02001C0F89C100120BDE8F08300BF1F
:1043F000D0F89C1041F48071C0F89C100120BDE8F9
:10440000F08300BFD6F8A070FF0FD6F8A46000F1CB
:104410007404C6F30526F519466C0AE0D6F8B070A8
:10442000FF0FD6F8B46000F17804C6F30526F5193D
:10443000C66CAC467543246804EB850E54F82570B1
:1044400017F08047576054F8257027F0604608BF82
:10445000C7F38A46166054F8257007F00057976036
:1044600054F8254004F000441461BEF80440D461BF
:10447000BEF8064014F00F04D460DEF8044004F4E3
:1044800080145461DEF8044004F4001494619EF832
:10449000074004F07F041462DEF804404FEAD4744D
:1044A000546228D044F274380024C0F601080EEBA0
:1044B0000406651C377A1F55D76818F80770BD4287
:1044C00019D21F19757A7D70D56818F80590A51C4A
:1044D0004D453FBFB57ABD70D56818F805903CBF13
:1044E000E51C4D4507D2F57A0434FD70D56818F8FF
:1044F0000550AC42DBD3402906D10068C0F8A8C003
:104500000020BDE8F08300BF412905D10068C0F854
:10451000B8C00020BDE8F0831F2909D80068012237
:1045200002FA01F1C0F898100020BDE8F08300BF46
:10453000006801F01F01012202FA01F1C0F89C108D
:104540000020BDE8F083000070470000000000007C
:104550002DE9F04F89B004464AF61000C4F200007D
:1045600001684AF61400C4F200000268206802EAFA
:104570000108056DD0F85490036D0293436D0193CB
:10458000036D0493436D0393036D0893436D079389
:10459000036D0693436D0593D0F854A0D0F850B046
:1045A0005FEACA530ED51BF480710BD04FF48071B3
:1045B00001654AF610010020C4F20001086020469F
:1045C000FFF7C2FF05EA09064AF610095FEA4A50FA
:1045D000C4F200094FEA887711D51BF480600ED031
:1045E0002068D0F8DC10D0F8E42011404FF480624D
:1045F00002650020C9F80000204600F071FCDDE9EA
:10460000011000EA010506F4704657B12068002148
:10461000016508F00300C9F8000020463946FFF79D
:10462000FBFDDDE9031000EA010705F00F0546B1C7
:104630002068314606650020C9F80000204600F0D9
:1046400057FC07F0F00645B12068294605650020B3
:10465000C9F80000204600F0EFFB46B12068314663
:1046600006650020C9F80000204600F001FC5FEA62
:104670000A500CD51BF4006009D020684FF400618B
:1046800001650020C9F80000204600F035FC5FEA13
:104690008A5011D51BF400700ED02068D0F8D810C5
:1046A000D0F8E02011404FF4007202650020C9F8F4
:1046B0000000204600F018FC5FEA0A300CD51BF41D
:1046C000002009D020684FF4002101650020C9F8BE
:1046D0000000204600F0ACFB5FEACA300CD51BF4AA
:1046E000803009D020684FF4803101650020C9F87E
:1046F0000000204600F0F0FB5FEA4A30DDE90510DB
:1047000000EA01050CD51BF4802009D020684FF485
:10471000802101650020C9F80000204600F0D8FB88
:104720005FEA8A30DDE9071000EA010005F06071F8
:104730000FD51BF400320CD022684FF40033136500
:104740000022C9F80020D4F89C2042F08002C4F86E
:104750009C2000F0715539B1206801650020C9F82E
:1047600000002046FFF7F8FD206845B105650021EF
:10477000C9F80010D4F89C102943C4F89C10A9F57E
:10478000016188420AD0D4F89C00002868D02046F5
:1047900009B0BDE8F04FFFF7DBBD00BF606881687E
:1047A0008907F0D0016A426A036A476A114003EA46
:1047B000070202F03005D0F82080D0F82490D0F81D
:1047C00020B0D0F824A0026A089211F00F01426ACA
:1047D0000792466A026A069203D00162204600F000
:1047E0006BFB08EA09072DB160682946056220467F
:1047F00000F06AFB70060BEA0A0607F4C0750ED5D6
:10480000069810F040000AD060684023C16BC26B6C
:10481000090C02F03F020362204600F051FBDDE983
:10482000071000EA010706F4FC462DB1606829462E
:104830000562204600F03CFB07F4F02036B16168C9
:104840000E62D4F89C103143C4F89C1000289AD012
:1048500061680862D4F89C100843C4F89C0092E791
:1048600009B0BDE8F08F00002DE9F04F85B0A8B386
:104870004AF200080446C4F200080068404531D0FE
:1048800094F89810A9B3816921F01001816100F0BA
:104890002FFC054620688169090705D500F028FC32
:1048A000401B0B28F6D310E0816941F001018161C2
:1048B00000F01EFC054600BF20688169C90721D1B0
:1048C00000F016FC401B0B28F6D30120D4F89C10F6
:1048D0000843C4F89C00032084F89800012005B028
:1048E000BDE8F08F08F58071616094F89810002998
:1048F000C9D1002084F89900204600F0B5F920685D
:10490000C1E700BF816941F002018161217C8269B8
:1049100022F04002012918BF40328261617C826925
:1049200022F48042012908BF02F580428261A17C05
:10493000826922F48052012918BF02F580528261F7
:10494000816921F44073D4E902120B4383618369C6
:1049500023F0A4038361036923F0100303619AB178
:10496000012A0DD0022A09D08369032A43F080036B
:104970008361036943F01002026105D1202200E047
:10498000042283691A438261D4E90572E369561EE1
:104990006FF0FF02256A02EB0323B1F5407F43EA83
:1049A0004663A5F1010646EA030640F20003CFF68E
:1049B000FF7303EB074746EA0701C16110D1D4E951
:1049C0000B65D4E90917013F02EB06226FF00F06D1
:1049D0003A4306EB05173A4303EB01411143C1602B
:1049E000236E2BB1616ED0F8C0201143C0F8C01007
:1049F000E16DCDE90313D94244F2A011C0F60101E3
:104A000009D0D0F8C820A36E22F0070251F8233055
:104A10001A43C0F8C820D4F840A0BAF1000F09D05A
:104A2000D0F8BC20636C22F0070251F823301A43FF
:104A3000C0F8BC20A76C57B1D0F8BC20E36C22F0C2
:104A4000700251F8233042EA0312C0F8BC20D4F8B7
:104A500050C0BCF1000F0AD0D0F8BC20636D22F426
:104A6000E06251F8231042EA0121C0F8BC10404531
:104A700004D161688A6822F003028A600021C4F8C8
:104A80009410C4F89C10012184F898104FF6FC7221
:104A9000D0F88410D4F83C9021EA0203656CD4E984
:104AA0000D120292019543EA8103C0F88430D0F8D8
:104AB000843023F47F0343EA0243C0F88430531860
:104AC000D0F888606FF38F0646EA8306C0F88860E6
:104AD000D0F8886003EB490326F4FE0646EA09464F
:104AE000C0F88860D0F8A0606FF38F0646EA8306AE
:104AF000C0F8A060D0F8A06005FB0A3326F4FE06DB
:104B000046EA0A46C0F8A060D0F8B0606FF38F069E
:104B100046EA8306C0F8B060D0F8B06026F4FE061E
:104B200046EA0746C0F8B060E66CD0F8AC506FF3C8
:104B30008F0506FB07337E4345EA8305C0F8AC507A
:104B4000D4F8548008FB0C35D0F8F0306FF38F03A5
:104B500008FB0CFC43EA8503C0F8F030D0F8F0E025
:104B6000A36D2EF47C1242EA0342C0F8F02005EB5C
:104B70004302D0F8C0506FF38F0545EA8202C0F8B7
:104B8000C020D0F8C020DDF80CB022F47C1242EA3C
:104B90000B42C0F8C020019AD0F8C05025F07C55D7
:104BA00002FB0AFE4AF20002C4F20002DDF810A085
:104BB00002EB8101029A01F5406145EA0A6501EBC9
:104BC0008207C0F8C05007EBC902A56E02EB8E0049
:104BD000626700EB86060BFB05F2276706EB8C0786
:104BE000C4E91E060AFB05F007EBC30303EB8202D0
:104BF000C4F884304DF2FC33E16602EB8000C4F26D
:104C000000039842C4F88070C4F88820C4F890006B
:104C100002D920205AE600BF814221D20A46002054
:104C200042F8040BD4F890309A4215D2486001F152
:104C30000802D4F890309A423FBF0020886001F10A
:104C40000C02D4F8903038BF9A4205D2C8601031B7
:104C5000D4F890209142E1D305B0BDE8F08F00BFB9
:104C6000002005B0BDE8F08FB0B5B6B0044602A88C
:104C7000B8210025CDE93455CDE932553195FBF702
:104C8000ECFC4DF200412068C4F20001884241D0A2
:104C90004AF20041C4F20001884273D04AF2000196
:104CA000C4F20001884240F0BF80002003904FF41E
:104CB000004002904FF080501D9002A800F02CFFA1
:104CC00008B1FCF71DFB40F2F81144F2E040C2F2DB
:104CD0000041C5F602000A68002A02F101020A60DA
:104CE00008D1C16841F48071C160C16801F480716C
:104CF000019101990168152441F0080101600068E3
:104D0000132500F00800019001980320319009213B
:104D100033E000BF4FF4004002904FF080501D90F0
:104D200002A8039500F0F8FE08B1FCF7E9FA40F29A
:104D3000F81144F2E040C2F20041C5F602000A68F0
:104D4000002A02F101020A6008D1C16841F48071B1
:104D5000C160C16801F48071019101990168A024CA
:104D600041F00801016000689F2500F008000190F3
:104D7000052101984FF44050319040F60040C5F6AF
:104D8000020038E0002003904FF4004002904FF002
:104D900080501D9002A800F0BFFE08B1FCF7B0FAE9
:104DA00040F2F81144F2E040C2F20041C5F60200C0
:104DB0000A68002A02F101020A6008D1C16841F4C0
:104DC0008071C160C16801F480710191019901682D
:104DD000162441F0020101600068142500F0020071
:104DE000019001986020319040F60040C5F6020025
:104DF0000921A0F50060359131A9022232920022EA
:104E0000CDE9332200F094F805210022284600F075
:104E100037FA284600F020FA05210022204600F04B
:104E20002FFA204600F018FA36B0B0BD000000009E
:104E30007047000000000000C90708BF704740F637
:104E40005C51C2F2004188420CD040F6FC51C2F2E3
:104E50000041884208D040F69C61C2F2004188427D
:104E600004D070470BF0F8BD0BF03ABE0BF05CBEFF
:104E7000704700000000000090F8981001290DD143
:104E8000022180F8981001688A6922F001028A6183
:104E90000021C0F89C100846704700BFD0F89C1055
:104EA00041F00401C0F89C10012070470000000090
:104EB0007047000000000000704700000000000084
:104EC0007047000000000000704700000000000074
:104ED0007047000000000000704700000000000064
:104EE0007047000000000000704700000000000054
:104EF0007047000000000000704700000000000044
:104F0000B0F5806F18BF704741F2A420C2F2004094
:104F100000680BF045BF00008821C5F600010A6853
:104F2000024208BF70470860FFF7EABF00000000B8
:104F30002DE9F04F82B00D68002D00F0CB8000F11C
:104F4000264242F2004302F1FF72C5F602030A262E
:104F500098424FEAB22444F2F44E08BF0926082CC6
:104F600040F2040C38BF4FEAB226C5F6020EC5F671
:104F7000000C009600220027002609E001360D688B
:104F800035FA06F307F1040702F1020200F0A280ED
:104F9000012303FA06F415EA0408EFD0D1F804A0BF
:104FA00003230AF0030B9340ABF101056FEA0309F9
:104FB000012D0FD88368CD6803EA090395402B4380
:104FC0008360CAF300154368A34305FA06F423433C
:104FD000436005E0BBF1030F02D14FF0030B21E06A
:104FE000C3688C6803EA09039440BBF1020F43EAEB
:104FF0000403C36016D16FF0030307F01C0503EA36
:1050000056030F24034404FA05FBD3F820A00C69CF
:105010002AEA0B0AAC4044EA0A041C62D1F804A054
:105020000AF0030B03680BFA02F403EA09031AF40B
:10503000403F43EA04030360A0D0DEF8003040F2B2
:10504000084A43F00203CEF80030DEF80030C5F61F
:10505000000A03F00203019326F00303019C07F00A
:105060000C040F2553F80A90A54029EA0509009D74
:1050700005FA04F444EA090443F80A404FF0B04A40
:10508000DAF800904C6849EA0805E30258BF29EABB
:105090000805A302CAF80050DCF8009049EA0805A8
:1050A00058BF29EA0805A303CCF80050DCF880902B
:1050B00049EA080558BF29EA0805E403CCF88050FE
:1050C000DCF87C3043EA080558BF23EA0805CCF831
:1050D0007C5053E702B0BDE8F08F000000000000F4
:1050E000002A08BF09048161704700000000000029
:1050F00041F63C40C2F200400068704700000000EA
:1051000040F2000041F63C41C2F20040C2F20041D0
:1051100000780A6810440860704700000000000032
:1051200080B5032000F0DCF801F032FC44F21841B5
:1051300044F2F813C5F60201C0F601030A680968D3
:1051400001F00F01C2F30322595C9A5C01F01F01C8
:1051500002F01F02D04040F20C02C2F2004220FADC
:1051600001F1116040F20801C2F2004108600F2015
:1051700000F00AF800281CBF012080BD00F054F8A0
:10518000002080BD00000000B0B58AB00F283DD8D7
:105190000446192000222146002500F071F819204C
:1051A00000F05AF840F20400C2F20040046044F2F9
:1051B000F040C5F60200016841F00101016000689D
:1051C00001A900F001000290029802A801F02CFB56
:1051D00001F0AEFB4DF683614000C4F21B310022AA
:1051E000A0FB010140F6C470C2F200404FF0FF3353
:1051F000C4F20102026003EB9141C0E9011540F2E3
:10520000E731C0E9031502F02BFC18B101200AB008
:10521000B0BD00BF40F6C470C2F2004002F06CFCAA
:105220000AB0B0BD0000000081B044F2F44000229A
:10523000C5F60200016841F00201016000680F211B
:1052400000F0020000906FF00100009B01B000F040
:1052500017B8000000000000002848BF704781B266
:1052600000F01F000122490902FA00F04EF200127C
:10527000CEF2000242F8210070470000000000005A
:1052800070B54EF60C5C4FF0FF36CEF2000C00F11C
:10529000604505F56445DCF80030C3F3022E8EF05E
:1052A0000703042B28BF0423BEF1030406FA03F30B
:1052B00021EA030100F00F0338BF0024043B00285B
:1052C000634406FA04F048BF03F10C05A14022EA4A
:1052D000000008430001287070BD000000000000BD
:1052E0004EF60C514FF6FF03CEF200010A681A4049
:1052F00060F30A2242F0806040F0FD700860704761
:10530000B0B544F60C05C5F60205296849072968B9
:1053100006D401F00701081A18BF0120B0BD00BF74
:1053200021F0070108432860FFF7E2FE044600BFB2
:1053300055F8080C800407D4FFF7DAFE001BB0F51F
:105340007A7FF5D90120B0BD0020B0BD000000007B
:1053500080B501F095FA44F2204144F2F812C5F606
:105360000201C0F601020968C1F30211515C01F0AB
:105370001F01C84080BD000080B544F2304EC5F624
:10538000020E5EF8083C5EF8081CC1F3051C5EF8CE
:10539000041CBCF1000FDEF8042019D001F001015B
:1053A00003F003034942022B01EAD2016FF35F319C
:1053B00000EE101AB8EE400A10D0012B12D01BB923
:1053C0005EF8301C890611D49FED361A1CE000BF30
:1053D00000218160C0E9001180BD00BF9FED301A3F
:1053E00012E000BF9FED2D1A0EE000BF5EF8301CEA
:1053F00049F20002C0F2D032C1F3C10122FA01F138
:1054000001EE101AB8EE411ADEF800109FED263AB0
:105410006FF35F2102EE101ADEF80010C1F346218F
:10542000B8EE422A00EE032A00EE10CAB7EE003AA8
:10543000B8EE400A81EE000A32EE031A02EE101AAC
:10544000B8EE422A20EE010A32EE031A80EE011A6B
:10545000BCEEC11A80ED001ADEF80010C1F306415F
:1054600001EE101AB8EE411A31EE031A80EE011A5D
:10547000BCEEC11A80ED011ADEF80010C1F306611E
:1054800001EE101AB8EE411A31EE031A80EE010A4D
:10549000BCEEC00A10EE101A816080BD0024744A70
:1054A000001BB74B0024744C0000003900000000C2
:1054B00080B544F2384EC5F6020E5EF8103C5EF838
:1054C000101C5EF80C2CC1F3053CDEF80410BCF196
:1054D000000F15D0C908D20601EAE2716FF35F31FF
:1054E00000EE101A03F003010229B8EE400A0DD0B5
:1054F00081B95EF8381C890610D49FED361A1BE07E
:1055000000218160C0E9001180BD00BF9FED301A0D
:1055100012E000BF9FED2D1A0EE000BF5EF8381CB0
:1055200049F20002C0F2D032C1F3C10122FA01F106
:1055300001EE101AB8EE411ADEF800109FED263A7F
:105540006FF35F2102EE101ADEF80010C1F346215E
:10555000B8EE422A00EE032A00EE10CAB7EE003A77
:10556000B8EE400A81EE000A32EE031A02EE101A7B
:10557000B8EE422A20EE010A32EE031A80EE011A3A
:10558000BCEEC11A80ED001ADEF80010C1F306412E
:1055900001EE101AB8EE411A31EE031A80EE011A2C
:1055A000BCEEC11A80ED011ADEF80010C1F30661ED
:1055B00001EE101AB8EE411A31EE031A80EE010A1C
:1055C000BCEEC00A10EE101A816080BD0024744A3F
:1055D000001BB74B0024744C000000390000000091
:1055E00080B544F2404EC5F6020E5EF8183C5EF8F7
:1055F000181C5EF8142CC1F3055CDEF80410BCF135
:10560000000F15D0C908D20501EAE2716FF35F31CE
:1056100000EE101A03F003010229B8EE400A0DD083
:1056200081B95EF8401C890610D49FED361A1BE044
:1056300000218160C0E9001180BD00BF9FED301ADC
:1056400012E000BF9FED2D1A0EE000BF5EF8401C77
:1056500049F20002C0F2D032C1F3C10122FA01F1D5
:1056600001EE101AB8EE411ADEF800109FED263A4E
:105670006FF35F2102EE101ADEF80010C1F346212D
:10568000B8EE422A00EE032A00EE10CAB7EE003A46
:10569000B8EE400A81EE000A32EE031A02EE101A4A
:1056A000B8EE422A20EE010A32EE031A80EE011A09
:1056B000BCEEC11A80ED001ADEF80010C1F30641FD
:1056C00001EE101AB8EE411A31EE031A80EE011AFB
:1056D000BCEEC11A80ED011ADEF80010C1F30661BC
:1056E00001EE101AB8EE411A31EE031A80EE010AEB
:1056F000BCEEC00A10EE101A816080BD0024744A0E
:10570000001BB74B0024744C00000039000000005F
:1057100010B584B0024641F6FF7300209B1A70EB6F
:1057200001032DDA47F6FF739B1A70EB010380F239
:10573000918082F400430B4300F0B88082F4803300
:105740000B4300F0018182F40022114340F04781B5
:1057500044F20040C5F60200816D01F44031B1F51C
:10576000003F00F04B81B1F5803F00F02781002918
:1057700040F03B810068000140F137810BE100BF40
:1057800040F2FF739B1A70EB010331DB82F48073EC
:105790000B4300F09F8082F48062114340F01F8130
:1057A00044F20041C5F60201886DC0F34252042A5A
:1057B00000F21B8148F20000C0F2BB00DFE812F0EB
:1057C000C200E800F2000F01060000BFC86C0A68C2
:1057D000520700F04052086802D5002A00F06881A4
:1057E000C00540F12581B2F1805F00F07A811FE1B0
:1057F00082F400630B4300F0938082F480521143E3
:1058000040F0ED8044F20041C5F60201086DC0F39E
:105810000232042A00F2E98048F20000C0F2BB0024
:10582000DFE812F09000B600C000DD00060000BF07
:10583000C86C0A68520700F04052086802D5002A76
:1058400000F03681C00540F1F380B2F1805F00F0D6
:105850004881EDE082F400530B4300F0858082F430
:105860008042114340F0BB8044F20044C5F602047C
:10587000A06DC0F30270052800F2B780DFE810F0D9
:105880000600EA00EC00EE00F400F60000F0F8FF7D
:10589000216A44F2F812C0F60102C1F30211515C10
:1058A00001F01F01C84004B010BD00BF44F2004029
:1058B000C5F60200016D01F04051B1F1005F00F04A
:1058C0008780B1F1805F00F08D80002940F08D80ED
:1058D00072E000BF44F20041C5F60201086D00F01D
:1058E0000702042A00F2818048F20000C0F2BB00E7
:1058F000DFE802F0284E5875040000BFC86C0A6843
:10590000520700F04052086802D5002A00F0D0800B
:10591000C00540F18D80B2F1805F00F0E28087E049
:1059200044F20041C5F60201886DC0F30262042A08
:105930005BD848F20000C0F2BB00DFE802F00329A8
:1059400033506B0008684EE044F20040C5F6020098
:10595000C16C0068C90346D5000146D501A8FFF710
:10596000A7FD039804B010BD44F20040C5F6020044
:10597000016DC1F30241052937D8DFE801F0038149
:105980008B95A31D04B0BDE8104000F0A1BF00BF7F
:105990000868000129D501A8FFF78AFD019804B025
:1059A00010BD00BF086880001FD501A8FFF718FED2
:1059B000019804B010BD00BF006858E00068800086
:1059C00013D501A8FFF70CFE039804B010BD00BF6B
:1059D0000068000109D501A8FFF76AFD029804B02C
:1059E00010BD00BF0068800102D4002004B010BDCB
:1059F00001A8FFF7C1FC029804B010BDC16C026899
:105A0000520701F04051026866D5002964D1C2F303
:105A1000C1004FE0C86C0A68520700F040520868A5
:105A200001D5002A44D0C00502D5B2F1805F58D01C
:105A30000868B2F1005F00F400314FF0000004BFCD
:105A400043F20060C0F26E10002908BF084604B09F
:105A500010BD00BF206814E020681CE020684007EB
:105A6000C3D5206824E000BF20682CE0206843F202
:105A700000618003C0F26E1101EAE07004B010BD55
:105A800000680001B1D501A8FFF712FD029804B02B
:105A900010BD00BF00688000A7D501A8FFF7A0FDDA
:105AA000029804B010BD00BF016849079DD5006889
:105AB000C0F3C10049F20001C0F2D03121FA00F078
:105AC00004B010BD006840F60011C005C0F23D01F1
:105AD00001EAE07004B010BDD20509D5B1F1805FD4
